{"abi":[{"type":"constructor","inputs":[{"name":"_baseBorrowRate","type":"uint256","internalType":"uint256"},{"name":"_optimalSpan","type":"uint256","internalType":"uint256"},{"name":"_exceessSpan","type":"uint256","internalType":"uint256"},{"name":"_optimalUtilizationRate","type":"uint256","internalType":"uint256"},{"name":"_collateralRate","type":"uint256","internalType":"uint256"},{"name":"_liquidationBonusRate","type":"uint256","internalType":"uint256"}],"stateMutability":"nonpayable"},{"type":"function","name":"baseBorrowRate","inputs":[],"outputs":[{"name":"","type":"uint256","internalType":"uint256"}],"stateMutability":"view"},{"type":"function","name":"collateralRate","inputs":[],"outputs":[{"name":"","type":"uint256","internalType":"uint256"}],"stateMutability":"view"},{"type":"function","name":"excessSpan","inputs":[],"outputs":[{"name":"","type":"uint256","internalType":"uint256"}],"stateMutability":"view"},{"type":"function","name":"getUtilizationRate","inputs":[{"name":"_totalBorrows","type":"uint256","internalType":"uint256"},{"name":"_totalLiquidity","type":"uint256","internalType":"uint256"}],"outputs":[{"name":"","type":"uint256","internalType":"uint256"}],"stateMutability":"pure"},{"type":"function","name":"liquidationBonusRate","inputs":[],"outputs":[{"name":"","type":"uint256","internalType":"uint256"}],"stateMutability":"view"},{"type":"function","name":"optimalSpan","inputs":[],"outputs":[{"name":"","type":"uint256","internalType":"uint256"}],"stateMutability":"view"},{"type":"function","name":"optimalUtilizationRate","inputs":[],"outputs":[{"name":"","type":"uint256","internalType":"uint256"}],"stateMutability":"view"}],"bytecode":{"object":"0x608060405234801561001057600080fd5b506040516102b53803806102b583398101604081905261002f916100aa565b670de0b6b3a7640000831061008a5760405162461bcd60e51b815260206004820181905260248201527f494e56414c49445f4f5054494d414c5f5554494c495a494154494f4e5f524154604482015260640160405180910390fd5b6000959095556001939093556002919091556003556004556005556100f4565b60008060008060008060c087890312156100c357600080fd5b50508451602086015160408701516060880151608089015160a090990151939a929950909790965094509092509050565b6101b2806101036000396000f3fe608060405234801561001057600080fd5b506004361061007d5760003560e01c8063687969801161005b57806368796980146100b9578063bf386682146100c2578063dffd2b38146100cb578063e98376da146100d457600080fd5b806310b2b3b71461008257806345ade0511461009d57806358a6be1c146100b0575b600080fd5b61008b60025481565b60405190815260200160405180910390f35b61008b6100ab366004610113565b6100dd565b61008b60045481565b61008b60015481565b61008b60005481565b61008b60035481565b61008b60055481565b6000811561010757816100f884670de0b6b3a7640000610135565b610102919061015a565b61010a565b60005b90505b92915050565b6000806040838503121561012657600080fd5b50508035926020909101359150565b808202811582820484141761010d57634e487b7160e01b600052601160045260246000fd5b60008261017757634e487b7160e01b600052601260045260246000fd5b50049056fea26469706673582212209463cf11eb6c16a6e4f554dc7db96b6fa3c56f14b574b354db1cf4f7af9586a364736f6c634300081a0033","linkReferences":{}},"methodIdentifiers":{"baseBorrowRate()":"bf386682","collateralRate()":"58a6be1c","excessSpan()":"10b2b3b7","getUtilizationRate(uint256,uint256)":"45ade051","liquidationBonusRate()":"e98376da","optimalSpan()":"68796980","optimalUtilizationRate()":"dffd2b38"},"id":43}